:100000000C9454000C94E5000C94E5000C94E5006D
:100010000C94E5000C94E5000C94CD000C94E500E4
:100020000C94E5000C94E5000C94E5000C94E500BC
:100030000C94E5000C94E5000C94E5000C94E500AC
:100040000C94E5000C94E5000C94E5000C94E5009C
:100050000C94E5000C94E5000C94E5000C94E5008C
:100060000C94E5000C94E5000C94E5000C94E5007C
:100070000C94E5000C94E5000C94E5000C94E5006C
:100080000C94E5000C94E5000C94E5000C94E5005C
:100090000C94E5000C94E5000C94E5000C94E5004C
:1000A000280028020001CE0011241FBECFEFCDBFD3
:1000B000DFE3DEBFE0EAF0E040E017C0B591A591D4
:1000C00035912591059107FD0CC095918591EF0122
:1000D000F92FE82F05900D92A217B307D9F7FE016B
:1000E00004C01D92A217B307E1F7E73AF40731F70E
:0C00F0000E947E000C947C00F894FFCF6E
:1000FC00CF93DF93CDB7DEB72A97CDBFDEBF8AE0B3
:10010C00E0ECF1E4DE01119601900D928A95E1F795
:10011C008FEF80934104E0E0F4E080E182838489F6
:10012C008860848B82E0848B789480E090E0E0E4BB
:10013C00F4E04FEF1EC04683A1E0B0E0AC0FBD1F52
:10014C00A80FB91F2C9125832AE23CE25AE02150DA
:10015C0030405040E1F700008930910514F40196CD
:10016C0008C0468325E136E155E02150304050402F
:10017C00E1F72091002830910128232BE1F680E053
:0E018C0090E02A96CDBFDEBFDF91CF9108959F
:10019A001F920F920FB60F9211248F938FEF8093B5
:1001AA00090410920028109201288F910F900FBE17
:0601BA000F901F90189544
:0A01C000EFFF87FDEDE6CFDB86BF01
:0401CA000C94000091
:0201CE0001002E
:00000001FF
